{
  "config" : {
    "chainId" : 1337,
    "berlinBlock" : 0,
    "ibft2" : {
      "blockperiodseconds" : 2,
      "epochlength" : 30000,
      "requesttimeoutseconds" : 4
    }
  },
  "nonce" : "0x0",
  "timestamp" : "0x58ee40ba",
  "gasLimit": "0x1C9C380",
  "difficulty" : "0x1",
  "mixHash" : "0x63746963616c2062797a616e74696e65206661756c7420746f6c6572616e6365",
  "coinbase" : "0x0000000000000000000000000000000000000000",
  "alloc": {
    "0x9ea1251d2cb749af683f8bfa0ed9d56d6622a969": {
      "balance": "0xad78ebc5ac6200000"
    },
    "0x6ebf1d12d6741ec7ce4db9083b5c4cf8612b32dd": {
      "balance": "0xad78ebc5ac6200000"
    },
    "0xb56c4e85760335c471af9af3cb97c34bba05e8df": {
      "balance": "0xad78ebc5ac6200000"
    },
    "0xbf8ea64b17fdc0ca30dee7c0c0b912178479a7fd": {
      "balance": "0xad78ebc5ac6200000"
    }
  },
  "extraData" : "0xf87ea00000000000000000000000000000000000000000000000000000000000000000f85494b56c4e85760335c471af9af3cb97c34bba05e8df94497d214fe8136e39a5e1929c6d574911ebfeaf07946ebf1d12d6741ec7ce4db9083b5c4cf8612b32dd94bf8ea64b17fdc0ca30dee7c0c0b912178479a7fd808400000000c0"
}